{
  "_format": "hh-sol-artifact-1",
  "contractName": "GameOnNFT",
  "sourceName": "contracts/GameOnNFT.sol",
  "abi": [
    {
      "inputs": [],
      "stateMutability": "nonpayable",
      "type": "constructor"
    },
    {
      "anonymous": false,
      "inputs": [
        {
          "indexed": true,
          "internalType": "address",
          "name": "owner",
          "type": "address"
        },
        {
          "indexed": true,
          "internalType": "address",
          "name": "approved",
          "type": "address"
        },
        {
          "indexed": true,
          "internalType": "uint256",
          "name": "tokenId",
          "type": "uint256"
        }
      ],
      "name": "Approval",
      "type": "event"
    },
    {
      "anonymous": false,
      "inputs": [
        {
          "indexed": true,
          "internalType": "address",
          "name": "owner",
          "type": "address"
        },
        {
          "indexed": true,
          "internalType": "address",
          "name": "operator",
          "type": "address"
        },
        {
          "indexed": false,
          "internalType": "bool",
          "name": "approved",
          "type": "bool"
        }
      ],
      "name": "ApprovalForAll",
      "type": "event"
    },
    {
      "anonymous": false,
      "inputs": [
        {
          "indexed": true,
          "internalType": "address",
          "name": "previousOwner",
          "type": "address"
        },
        {
          "indexed": true,
          "internalType": "address",
          "name": "newOwner",
          "type": "address"
        }
      ],
      "name": "OwnershipTransferred",
      "type": "event"
    },
    {
      "anonymous": false,
      "inputs": [
        {
          "indexed": true,
          "internalType": "address",
          "name": "from",
          "type": "address"
        },
        {
          "indexed": true,
          "internalType": "address",
          "name": "to",
          "type": "address"
        },
        {
          "indexed": true,
          "internalType": "uint256",
          "name": "tokenId",
          "type": "uint256"
        }
      ],
      "name": "Transfer",
      "type": "event"
    },
    {
      "inputs": [],
      "name": "MAX_MINT",
      "outputs": [
        {
          "internalType": "uint256",
          "name": "",
          "type": "uint256"
        }
      ],
      "stateMutability": "view",
      "type": "function"
    },
    {
      "inputs": [],
      "name": "MAX_TOKENS",
      "outputs": [
        {
          "internalType": "uint256",
          "name": "",
          "type": "uint256"
        }
      ],
      "stateMutability": "view",
      "type": "function"
    },
    {
      "inputs": [],
      "name": "PRICE",
      "outputs": [
        {
          "internalType": "uint256",
          "name": "",
          "type": "uint256"
        }
      ],
      "stateMutability": "view",
      "type": "function"
    },
    {
      "inputs": [
        {
          "internalType": "address",
          "name": "to",
          "type": "address"
        },
        {
          "internalType": "uint256",
          "name": "tokenId",
          "type": "uint256"
        }
      ],
      "name": "approve",
      "outputs": [],
      "stateMutability": "nonpayable",
      "type": "function"
    },
    {
      "inputs": [
        {
          "internalType": "address",
          "name": "owner",
          "type": "address"
        }
      ],
      "name": "balanceOf",
      "outputs": [
        {
          "internalType": "uint256",
          "name": "",
          "type": "uint256"
        }
      ],
      "stateMutability": "view",
      "type": "function"
    },
    {
      "inputs": [
        {
          "internalType": "uint256",
          "name": "tokenId",
          "type": "uint256"
        }
      ],
      "name": "getApproved",
      "outputs": [
        {
          "internalType": "address",
          "name": "",
          "type": "address"
        }
      ],
      "stateMutability": "view",
      "type": "function"
    },
    {
      "inputs": [
        {
          "internalType": "address",
          "name": "owner",
          "type": "address"
        },
        {
          "internalType": "address",
          "name": "operator",
          "type": "address"
        }
      ],
      "name": "isApprovedForAll",
      "outputs": [
        {
          "internalType": "bool",
          "name": "",
          "type": "bool"
        }
      ],
      "stateMutability": "view",
      "type": "function"
    },
    {
      "inputs": [],
      "name": "name",
      "outputs": [
        {
          "internalType": "string",
          "name": "",
          "type": "string"
        }
      ],
      "stateMutability": "view",
      "type": "function"
    },
    {
      "inputs": [],
      "name": "owner",
      "outputs": [
        {
          "internalType": "address",
          "name": "",
          "type": "address"
        }
      ],
      "stateMutability": "view",
      "type": "function"
    },
    {
      "inputs": [
        {
          "internalType": "uint256",
          "name": "tokenId",
          "type": "uint256"
        }
      ],
      "name": "ownerOf",
      "outputs": [
        {
          "internalType": "address",
          "name": "",
          "type": "address"
        }
      ],
      "stateMutability": "view",
      "type": "function"
    },
    {
      "inputs": [],
      "name": "renounceOwnership",
      "outputs": [],
      "stateMutability": "nonpayable",
      "type": "function"
    },
    {
      "inputs": [
        {
          "internalType": "address",
          "name": "to",
          "type": "address"
        },
        {
          "internalType": "string",
          "name": "uri",
          "type": "string"
        }
      ],
      "name": "safeMint",
      "outputs": [],
      "stateMutability": "payable",
      "type": "function"
    },
    {
      "inputs": [
        {
          "internalType": "address",
          "name": "from",
          "type": "address"
        },
        {
          "internalType": "address",
          "name": "to",
          "type": "address"
        },
        {
          "internalType": "uint256",
          "name": "tokenId",
          "type": "uint256"
        }
      ],
      "name": "safeTransferFrom",
      "outputs": [],
      "stateMutability": "nonpayable",
      "type": "function"
    },
    {
      "inputs": [
        {
          "internalType": "address",
          "name": "from",
          "type": "address"
        },
        {
          "internalType": "address",
          "name": "to",
          "type": "address"
        },
        {
          "internalType": "uint256",
          "name": "tokenId",
          "type": "uint256"
        },
        {
          "internalType": "bytes",
          "name": "data",
          "type": "bytes"
        }
      ],
      "name": "safeTransferFrom",
      "outputs": [],
      "stateMutability": "nonpayable",
      "type": "function"
    },
    {
      "inputs": [
        {
          "internalType": "address",
          "name": "operator",
          "type": "address"
        },
        {
          "internalType": "bool",
          "name": "approved",
          "type": "bool"
        }
      ],
      "name": "setApprovalForAll",
      "outputs": [],
      "stateMutability": "nonpayable",
      "type": "function"
    },
    {
      "inputs": [
        {
          "internalType": "bytes4",
          "name": "interfaceId",
          "type": "bytes4"
        }
      ],
      "name": "supportsInterface",
      "outputs": [
        {
          "internalType": "bool",
          "name": "",
          "type": "bool"
        }
      ],
      "stateMutability": "view",
      "type": "function"
    },
    {
      "inputs": [],
      "name": "symbol",
      "outputs": [
        {
          "internalType": "string",
          "name": "",
          "type": "string"
        }
      ],
      "stateMutability": "view",
      "type": "function"
    },
    {
      "inputs": [
        {
          "internalType": "uint256",
          "name": "tokenId",
          "type": "uint256"
        }
      ],
      "name": "tokenURI",
      "outputs": [
        {
          "internalType": "string",
          "name": "",
          "type": "string"
        }
      ],
      "stateMutability": "view",
      "type": "function"
    },
    {
      "inputs": [],
      "name": "totalSupply",
      "outputs": [
        {
          "internalType": "uint256",
          "name": "",
          "type": "uint256"
        }
      ],
      "stateMutability": "view",
      "type": "function"
    },
    {
      "inputs": [
        {
          "internalType": "address",
          "name": "from",
          "type": "address"
        },
        {
          "internalType": "address",
          "name": "to",
          "type": "address"
        },
        {
          "internalType": "uint256",
          "name": "tokenId",
          "type": "uint256"
        }
      ],
      "name": "transferFrom",
      "outputs": [],
      "stateMutability": "nonpayable",
      "type": "function"
    },
    {
      "inputs": [
        {
          "internalType": "address",
          "name": "newOwner",
          "type": "address"
        }
      ],
      "name": "transferOwnership",
      "outputs": [],
      "stateMutability": "nonpayable",
      "type": "function"
    },
    {
      "inputs": [],
      "name": "withdraw",
      "outputs": [],
      "stateMutability": "nonpayable",
      "type": "function"
    }
  ],
  "bytecode": "0x60806040523480156200001157600080fd5b506040518060400160405280600681526020017f47616d654f6e00000000000000000000000000000000000000000000000000008152506040518060400160405280600381526020017f474f4e000000000000000000000000000000000000000000000000000000000081525081600090816200008f919062000412565b508060019081620000a1919062000412565b505050620000c4620000b8620000ca60201b60201c565b620000d260201b60201c565b620004f9565b600033905090565b6000600760009054906101000a900473ffffffffffffffffffffffffffffffffffffffff16905081600760006101000a81548173ffffffffffffffffffffffffffffffffffffffff021916908373ffffffffffffffffffffffffffffffffffffffff1602179055508173ffffffffffffffffffffffffffffffffffffffff168173ffffffffffffffffffffffffffffffffffffffff167f8be0079c531659141344cd1fd0a4f28419497f9722a3daafe3b4186f6b6457e060405160405180910390a35050565b600081519050919050565b7f4e487b7100000000000000000000000000000000000000000000000000000000600052604160045260246000fd5b7f4e487b7100000000000000000000000000000000000000000000000000000000600052602260045260246000fd5b600060028204905060018216806200021a57607f821691505b60208210810362000230576200022f620001d2565b5b50919050565b60008190508160005260206000209050919050565b60006020601f8301049050919050565b600082821b905092915050565b6000600883026200029a7fffffffffffffffffffffffffffffffffffffffffffffffffffffffffffffffff826200025b565b620002a686836200025b565b95508019841693508086168417925050509392505050565b6000819050919050565b6000819050919050565b6000620002f3620002ed620002e784620002be565b620002c8565b620002be565b9050919050565b6000819050919050565b6200030f83620002d2565b620003276200031e82620002fa565b84845462000268565b825550505050565b600090565b6200033e6200032f565b6200034b81848462000304565b505050565b5b8181101562000373576200036760008262000334565b60018101905062000351565b5050565b601f821115620003c2576200038c8162000236565b62000397846200024b565b81016020851015620003a7578190505b620003bf620003b6856200024b565b83018262000350565b50505b505050565b600082821c905092915050565b6000620003e760001984600802620003c7565b1980831691505092915050565b6000620004028383620003d4565b9150826002028217905092915050565b6200041d8262000198565b67ffffffffffffffff811115620004395762000438620001a3565b5b62000445825462000201565b6200045282828562000377565b600060209050601f8311600181146200048a576000841562000475578287015190505b620004818582620003f4565b865550620004f1565b601f1984166200049a8662000236565b60005b82811015620004c4578489015182556001820191506020850194506020810190506200049d565b86831015620004e45784890151620004e0601f891682620003d4565b8355505b6001600288020188555050505b505050505050565b6131c880620005096000396000f3fe6080604052600436106101355760003560e01c80638d859f3e116100ab578063c87b56dd1161006f578063c87b56dd14610400578063d204c45e1461043d578063e985e9c514610459578063f0292a0314610496578063f2fde38b146104c1578063f47c84c5146104ea57610135565b80638d859f3e1461032d5780638da5cb5b1461035857806395d89b4114610383578063a22cb465146103ae578063b88d4fde146103d757610135565b806323b872dd116100fd57806323b872dd146102335780633ccfd60b1461025c57806342842e0e146102735780636352211e1461029c57806370a08231146102d9578063715018a61461031657610135565b806301ffc9a71461013a57806306fdde0314610177578063081812fc146101a2578063095ea7b3146101df57806318160ddd14610208575b600080fd5b34801561014657600080fd5b50610161600480360381019061015c9190611ee1565b610515565b60405161016e9190611f29565b60405180910390f35b34801561018357600080fd5b5061018c6105f7565b6040516101999190611fd4565b60405180910390f35b3480156101ae57600080fd5b506101c960048036038101906101c4919061202c565b610689565b6040516101d6919061209a565b60405180910390f35b3480156101eb57600080fd5b50610206600480360381019061020191906120e1565b6106cf565b005b34801561021457600080fd5b5061021d6107e6565b60405161022a9190612130565b60405180910390f35b34801561023f57600080fd5b5061025a6004803603810190610255919061214b565b6107f7565b005b34801561026857600080fd5b50610271610857565b005b34801561027f57600080fd5b5061029a6004803603810190610295919061214b565b6108ae565b005b3480156102a857600080fd5b506102c360048036038101906102be919061202c565b6108ce565b6040516102d0919061209a565b60405180910390f35b3480156102e557600080fd5b5061030060048036038101906102fb919061219e565b610954565b60405161030d9190612130565b60405180910390f35b34801561032257600080fd5b5061032b610a0b565b005b34801561033957600080fd5b50610342610a1f565b60405161034f9190612130565b60405180910390f35b34801561036457600080fd5b5061036d610a2b565b60405161037a919061209a565b60405180910390f35b34801561038f57600080fd5b50610398610a55565b6040516103a59190611fd4565b60405180910390f35b3480156103ba57600080fd5b506103d560048036038101906103d091906121f7565b610ae7565b005b3480156103e357600080fd5b506103fe60048036038101906103f9919061236c565b610afd565b005b34801561040c57600080fd5b506104276004803603810190610422919061202c565b610b5f565b6040516104349190611fd4565b60405180910390f35b61045760048036038101906104529190612490565b610b71565b005b34801561046557600080fd5b50610480600480360381019061047b91906124ec565b610c37565b60405161048d9190611f29565b60405180910390f35b3480156104a257600080fd5b506104ab610ccb565b6040516104b89190612130565b60405180910390f35b3480156104cd57600080fd5b506104e860048036038101906104e3919061219e565b610cd0565b005b3480156104f657600080fd5b506104ff610d53565b60405161050c9190612130565b60405180910390f35b60007f80ac58cd000000000000000000000000000000000000000000000000000000007bffffffffffffffffffffffffffffffffffffffffffffffffffffffff1916827bffffffffffffffffffffffffffffffffffffffffffffffffffffffff191614806105e057507f5b5e139f000000000000000000000000000000000000000000000000000000007bffffffffffffffffffffffffffffffffffffffffffffffffffffffff1916827bffffffffffffffffffffffffffffffffffffffffffffffffffffffff1916145b806105f057506105ef82610d58565b5b9050919050565b6060600080546106069061255b565b80601f01602080910402602001604051908101604052809291908181526020018280546106329061255b565b801561067f5780601f106106545761010080835404028352916020019161067f565b820191906000526020600020905b81548152906001019060200180831161066257829003601f168201915b5050505050905090565b600061069482610dc2565b6004600083815260200190815260200160002060009054906101000a900473ffffffffffffffffffffffffffffffffffffffff169050919050565b60006106da826108ce565b90508073ffffffffffffffffffffffffffffffffffffffff168373ffffffffffffffffffffffffffffffffffffffff160361074a576040517f08c379a0000000000000000000000000000000000000000000000000000000008152600401610741906125fe565b60405180910390fd5b8073ffffffffffffffffffffffffffffffffffffffff16610769610e0d565b73ffffffffffffffffffffffffffffffffffffffff161480610798575061079781610792610e0d565b610c37565b5b6107d7576040517f08c379a00000000000000000000000000000000000000000000000000000000081526004016107ce90612690565b60405180910390fd5b6107e18383610e15565b505050565b60006107f26008610ece565b905090565b610808610802610e0d565b82610edc565b610847576040517f08c379a000000000000000000000000000000000000000000000000000000000815260040161083e90612722565b60405180910390fd5b610852838383610f71565b505050565b61085f61126a565b60004790503373ffffffffffffffffffffffffffffffffffffffff166108fc829081150290604051600060405180830381858888f193505050501580156108aa573d6000803e3d6000fd5b5050565b6108c983838360405180602001604052806000815250610afd565b505050565b6000806108da836112e8565b9050600073ffffffffffffffffffffffffffffffffffffffff168173ffffffffffffffffffffffffffffffffffffffff160361094b576040517f08c379a00000000000000000000000000000000000000000000000000000000081526004016109429061278e565b60405180910390fd5b80915050919050565b60008073ffffffffffffffffffffffffffffffffffffffff168273ffffffffffffffffffffffffffffffffffffffff16036109c4576040517f08c379a00000000000000000000000000000000000000000000000000000000081526004016109bb90612820565b60405180910390fd5b600360008373ffffffffffffffffffffffffffffffffffffffff1673ffffffffffffffffffffffffffffffffffffffff168152602001908152602001600020549050919050565b610a1361126a565b610a1d6000611325565b565b67016345785d8a000081565b6000600760009054906101000a900473ffffffffffffffffffffffffffffffffffffffff16905090565b606060018054610a649061255b565b80601f0160208091040260200160405190810160405280929190818152602001828054610a909061255b565b8015610add5780601f10610ab257610100808354040283529160200191610add565b820191906000526020600020905b815481529060010190602001808311610ac057829003601f168201915b5050505050905090565b610af9610af2610e0d565b83836113eb565b5050565b610b0e610b08610e0d565b83610edc565b610b4d576040517f08c379a0000000000000000000000000000000000000000000000000000000008152600401610b4490612722565b60405180910390fd5b610b5984848484611557565b50505050565b6060610b6a826115b3565b9050919050565b600a610b7b6107e6565b10610bbb576040517f08c379a0000000000000000000000000000000000000000000000000000000008152600401610bb29061288c565b60405180910390fd5b67016345785d8a0000341015610c06576040517f08c379a0000000000000000000000000000000000000000000000000000000008152600401610bfd906128f8565b60405180910390fd5b6000610c126008610ece565b9050610c1e60086116c5565b610c2883826116db565b610c3281836116f9565b505050565b6000600560008473ffffffffffffffffffffffffffffffffffffffff1673ffffffffffffffffffffffffffffffffffffffff16815260200190815260200160002060008373ffffffffffffffffffffffffffffffffffffffff1673ffffffffffffffffffffffffffffffffffffffff16815260200190815260200160002060009054906101000a900460ff16905092915050565b600181565b610cd861126a565b600073ffffffffffffffffffffffffffffffffffffffff168173ffffffffffffffffffffffffffffffffffffffff1603610d47576040517f08c379a0000000000000000000000000000000000000000000000000000000008152600401610d3e9061298a565b60405180910390fd5b610d5081611325565b50565b600a81565b60007f01ffc9a7000000000000000000000000000000000000000000000000000000007bffffffffffffffffffffffffffffffffffffffffffffffffffffffff1916827bffffffffffffffffffffffffffffffffffffffffffffffffffffffff1916149050919050565b610dcb81611766565b610e0a576040517f08c379a0000000000000000000000000000000000000000000000000000000008152600401610e019061278e565b60405180910390fd5b50565b600033905090565b816004600083815260200190815260200160002060006101000a81548173ffffffffffffffffffffffffffffffffffffffff021916908373ffffffffffffffffffffffffffffffffffffffff160217905550808273ffffffffffffffffffffffffffffffffffffffff16610e88836108ce565b73ffffffffffffffffffffffffffffffffffffffff167f8c5be1e5ebec7d5bd14f71427d1e84f3dd0314c0f7b2291e5b200ac8c7c3b92560405160405180910390a45050565b600081600001549050919050565b600080610ee8836108ce565b90508073ffffffffffffffffffffffffffffffffffffffff168473ffffffffffffffffffffffffffffffffffffffff161480610f2a5750610f298185610c37565b5b80610f6857508373ffffffffffffffffffffffffffffffffffffffff16610f5084610689565b73ffffffffffffffffffffffffffffffffffffffff16145b91505092915050565b8273ffffffffffffffffffffffffffffffffffffffff16610f91826108ce565b73ffffffffffffffffffffffffffffffffffffffff1614610fe7576040517f08c379a0000000000000000000000000000000000000000000000000000000008152600401610fde90612a1c565b60405180910390fd5b600073ffffffffffffffffffffffffffffffffffffffff168273ffffffffffffffffffffffffffffffffffffffff1603611056576040517f08c379a000000000000000000000000000000000000000000000000000000000815260040161104d90612aae565b60405180910390fd5b61106383838360016117a7565b8273ffffffffffffffffffffffffffffffffffffffff16611083826108ce565b73ffffffffffffffffffffffffffffffffffffffff16146110d9576040517f08c379a00000000000000000000000000000000000000000000000000000000081526004016110d090612a1c565b60405180910390fd5b6004600082815260200190815260200160002060006101000a81549073ffffffffffffffffffffffffffffffffffffffff02191690556001600360008573ffffffffffffffffffffffffffffffffffffffff1673ffffffffffffffffffffffffffffffffffffffff168152602001908152602001600020600082825403925050819055506001600360008473ffffffffffffffffffffffffffffffffffffffff1673ffffffffffffffffffffffffffffffffffffffff16815260200190815260200160002060008282540192505081905550816002600083815260200190815260200160002060006101000a81548173ffffffffffffffffffffffffffffffffffffffff021916908373ffffffffffffffffffffffffffffffffffffffff160217905550808273ffffffffffffffffffffffffffffffffffffffff168473ffffffffffffffffffffffffffffffffffffffff167fddf252ad1be2c89b69c2b068fc378daa952ba7f163c4a11628f55a4df523b3ef60405160405180910390a461126583838360016117ad565b505050565b611272610e0d565b73ffffffffffffffffffffffffffffffffffffffff16611290610a2b565b73ffffffffffffffffffffffffffffffffffffffff16146112e6576040517f08c379a00000000000000000000000000000000000000000000000000000000081526004016112dd90612b1a565b60405180910390fd5b565b60006002600083815260200190815260200160002060009054906101000a900473ffffffffffffffffffffffffffffffffffffffff169050919050565b6000600760009054906101000a900473ffffffffffffffffffffffffffffffffffffffff16905081600760006101000a81548173ffffffffffffffffffffffffffffffffffffffff021916908373ffffffffffffffffffffffffffffffffffffffff1602179055508173ffffffffffffffffffffffffffffffffffffffff168173ffffffffffffffffffffffffffffffffffffffff167f8be0079c531659141344cd1fd0a4f28419497f9722a3daafe3b4186f6b6457e060405160405180910390a35050565b8173ffffffffffffffffffffffffffffffffffffffff168373ffffffffffffffffffffffffffffffffffffffff1603611459576040517f08c379a000000000000000000000000000000000000000000000000000000000815260040161145090612b86565b60405180910390fd5b80600560008573ffffffffffffffffffffffffffffffffffffffff1673ffffffffffffffffffffffffffffffffffffffff16815260200190815260200160002060008473ffffffffffffffffffffffffffffffffffffffff1673ffffffffffffffffffffffffffffffffffffffff16815260200190815260200160002060006101000a81548160ff0219169083151502179055508173ffffffffffffffffffffffffffffffffffffffff168373ffffffffffffffffffffffffffffffffffffffff167f17307eab39ab6107e8899845ad3d59bd9653f200f220920489ca2b5937696c318360405161154a9190611f29565b60405180910390a3505050565b611562848484610f71565b61156e848484846117b3565b6115ad576040517f08c379a00000000000000000000000000000000000000000000000000000000081526004016115a490612c18565b60405180910390fd5b50505050565b60606115be82610dc2565b60006006600084815260200190815260200160002080546115de9061255b565b80601f016020809104026020016040519081016040528092919081815260200182805461160a9061255b565b80156116575780601f1061162c57610100808354040283529160200191611657565b820191906000526020600020905b81548152906001019060200180831161163a57829003601f168201915b50505050509050600061166861193a565b9050600081510361167d5781925050506116c0565b6000825111156116b257808260405160200161169a929190612c74565b604051602081830303815290604052925050506116c0565b6116bb84611951565b925050505b919050565b6001816000016000828254019250508190555050565b6116f58282604051806020016040528060008152506119b9565b5050565b61170282611766565b611741576040517f08c379a000000000000000000000000000000000000000000000000000000000815260040161173890612d0a565b60405180910390fd5b806006600084815260200190815260200160002090816117619190612ed6565b505050565b60008073ffffffffffffffffffffffffffffffffffffffff16611788836112e8565b73ffffffffffffffffffffffffffffffffffffffff1614159050919050565b50505050565b50505050565b60006117d48473ffffffffffffffffffffffffffffffffffffffff16611a14565b1561192d578373ffffffffffffffffffffffffffffffffffffffff1663150b7a026117fd610e0d565b8786866040518563ffffffff1660e01b815260040161181f9493929190612ffd565b6020604051808303816000875af192505050801561185b57506040513d601f19601f82011682018060405250810190611858919061305e565b60015b6118dd573d806000811461188b576040519150601f19603f3d011682016040523d82523d6000602084013e611890565b606091505b5060008151036118d5576040517f08c379a00000000000000000000000000000000000000000000000000000000081526004016118cc90612c18565b60405180910390fd5b805181602001fd5b63150b7a0260e01b7bffffffffffffffffffffffffffffffffffffffffffffffffffffffff1916817bffffffffffffffffffffffffffffffffffffffffffffffffffffffff191614915050611932565b600190505b949350505050565b606060405180602001604052806000815250905090565b606061195c82610dc2565b600061196661193a565b9050600081511161198657604051806020016040528060008152506119b1565b8061199084611a37565b6040516020016119a1929190612c74565b6040516020818303038152906040525b915050919050565b6119c38383611b05565b6119d060008484846117b3565b611a0f576040517f08c379a0000000000000000000000000000000000000000000000000000000008152600401611a0690612c18565b60405180910390fd5b505050565b6000808273ffffffffffffffffffffffffffffffffffffffff163b119050919050565b606060006001611a4684611d22565b01905060008167ffffffffffffffff811115611a6557611a64612241565b5b6040519080825280601f01601f191660200182016040528015611a975781602001600182028036833780820191505090505b509050600082602001820190505b600115611afa578080600190039150507f3031323334353637383961626364656600000000000000000000000000000000600a86061a8153600a8581611aee57611aed61308b565b5b04945060008503611aa5575b819350505050919050565b600073ffffffffffffffffffffffffffffffffffffffff168273ffffffffffffffffffffffffffffffffffffffff1603611b74576040517f08c379a0000000000000000000000000000000000000000000000000000000008152600401611b6b90613106565b60405180910390fd5b611b7d81611766565b15611bbd576040517f08c379a0000000000000000000000000000000000000000000000000000000008152600401611bb490613172565b60405180910390fd5b611bcb6000838360016117a7565b611bd481611766565b15611c14576040517f08c379a0000000000000000000000000000000000000000000000000000000008152600401611c0b90613172565b60405180910390fd5b6001600360008473ffffffffffffffffffffffffffffffffffffffff1673ffffffffffffffffffffffffffffffffffffffff16815260200190815260200160002060008282540192505081905550816002600083815260200190815260200160002060006101000a81548173ffffffffffffffffffffffffffffffffffffffff021916908373ffffffffffffffffffffffffffffffffffffffff160217905550808273ffffffffffffffffffffffffffffffffffffffff16600073ffffffffffffffffffffffffffffffffffffffff167fddf252ad1be2c89b69c2b068fc378daa952ba7f163c4a11628f55a4df523b3ef60405160405180910390a4611d1e6000838360016117ad565b5050565b600080600090507a184f03e93ff9f4daa797ed6e38ed64bf6a1f0100000000000000008310611d80577a184f03e93ff9f4daa797ed6e38ed64bf6a1f0100000000000000008381611d7657611d7561308b565b5b0492506040810190505b6d04ee2d6d415b85acef81000000008310611dbd576d04ee2d6d415b85acef81000000008381611db357611db261308b565b5b0492506020810190505b662386f26fc100008310611dec57662386f26fc100008381611de257611de161308b565b5b0492506010810190505b6305f5e1008310611e15576305f5e1008381611e0b57611e0a61308b565b5b0492506008810190505b6127108310611e3a576127108381611e3057611e2f61308b565b5b0492506004810190505b60648310611e5d5760648381611e5357611e5261308b565b5b0492506002810190505b600a8310611e6c576001810190505b80915050919050565b6000604051905090565b600080fd5b600080fd5b60007fffffffff0000000000000000000000000000000000000000000000000000000082169050919050565b611ebe81611e89565b8114611ec957600080fd5b50565b600081359050611edb81611eb5565b92915050565b600060208284031215611ef757611ef6611e7f565b5b6000611f0584828501611ecc565b91505092915050565b60008115159050919050565b611f2381611f0e565b82525050565b6000602082019050611f3e6000830184611f1a565b92915050565b600081519050919050565b600082825260208201905092915050565b60005b83811015611f7e578082015181840152602081019050611f63565b60008484015250505050565b6000601f19601f8301169050919050565b6000611fa682611f44565b611fb08185611f4f565b9350611fc0818560208601611f60565b611fc981611f8a565b840191505092915050565b60006020820190508181036000830152611fee8184611f9b565b905092915050565b6000819050919050565b61200981611ff6565b811461201457600080fd5b50565b60008135905061202681612000565b92915050565b60006020828403121561204257612041611e7f565b5b600061205084828501612017565b91505092915050565b600073ffffffffffffffffffffffffffffffffffffffff82169050919050565b600061208482612059565b9050919050565b61209481612079565b82525050565b60006020820190506120af600083018461208b565b92915050565b6120be81612079565b81146120c957600080fd5b50565b6000813590506120db816120b5565b92915050565b600080604083850312156120f8576120f7611e7f565b5b6000612106858286016120cc565b925050602061211785828601612017565b9150509250929050565b61212a81611ff6565b82525050565b60006020820190506121456000830184612121565b92915050565b60008060006060848603121561216457612163611e7f565b5b6000612172868287016120cc565b9350506020612183868287016120cc565b925050604061219486828701612017565b9150509250925092565b6000602082840312156121b4576121b3611e7f565b5b60006121c2848285016120cc565b91505092915050565b6121d481611f0e565b81146121df57600080fd5b50565b6000813590506121f1816121cb565b92915050565b6000806040838503121561220e5761220d611e7f565b5b600061221c858286016120cc565b925050602061222d858286016121e2565b9150509250929050565b600080fd5b600080fd5b7f4e487b7100000000000000000000000000000000000000000000000000000000600052604160045260246000fd5b61227982611f8a565b810181811067ffffffffffffffff8211171561229857612297612241565b5b80604052505050565b60006122ab611e75565b90506122b78282612270565b919050565b600067ffffffffffffffff8211156122d7576122d6612241565b5b6122e082611f8a565b9050602081019050919050565b82818337600083830152505050565b600061230f61230a846122bc565b6122a1565b90508281526020810184848401111561232b5761232a61223c565b5b6123368482856122ed565b509392505050565b600082601f83011261235357612352612237565b5b81356123638482602086016122fc565b91505092915050565b6000806000806080858703121561238657612385611e7f565b5b6000612394878288016120cc565b94505060206123a5878288016120cc565b93505060406123b687828801612017565b925050606085013567ffffffffffffffff8111156123d7576123d6611e84565b5b6123e38782880161233e565b91505092959194509250565b600067ffffffffffffffff82111561240a57612409612241565b5b61241382611f8a565b9050602081019050919050565b600061243361242e846123ef565b6122a1565b90508281526020810184848401111561244f5761244e61223c565b5b61245a8482856122ed565b509392505050565b600082601f83011261247757612476612237565b5b8135612487848260208601612420565b91505092915050565b600080604083850312156124a7576124a6611e7f565b5b60006124b5858286016120cc565b925050602083013567ffffffffffffffff8111156124d6576124d5611e84565b5b6124e285828601612462565b9150509250929050565b6000806040838503121561250357612502611e7f565b5b6000612511858286016120cc565b9250506020612522858286016120cc565b9150509250929050565b7f4e487b7100000000000000000000000000000000000000000000000000000000600052602260045260246000fd5b6000600282049050600182168061257357607f821691505b6020821081036125865761258561252c565b5b50919050565b7f4552433732313a20617070726f76616c20746f2063757272656e74206f776e6560008201527f7200000000000000000000000000000000000000000000000000000000000000602082015250565b60006125e8602183611f4f565b91506125f38261258c565b604082019050919050565b60006020820190508181036000830152612617816125db565b9050919050565b7f4552433732313a20617070726f76652063616c6c6572206973206e6f7420746f60008201527f6b656e206f776e6572206f7220617070726f76656420666f7220616c6c000000602082015250565b600061267a603d83611f4f565b91506126858261261e565b604082019050919050565b600060208201905081810360008301526126a98161266d565b9050919050565b7f4552433732313a2063616c6c6572206973206e6f7420746f6b656e206f776e6560008201527f72206f7220617070726f76656400000000000000000000000000000000000000602082015250565b600061270c602d83611f4f565b9150612717826126b0565b604082019050919050565b6000602082019050818103600083015261273b816126ff565b9050919050565b7f4552433732313a20696e76616c696420746f6b656e2049440000000000000000600082015250565b6000612778601883611f4f565b915061278382612742565b602082019050919050565b600060208201905081810360008301526127a78161276b565b9050919050565b7f4552433732313a2061646472657373207a65726f206973206e6f74206120766160008201527f6c6964206f776e65720000000000000000000000000000000000000000000000602082015250565b600061280a602983611f4f565b9150612815826127ae565b604082019050919050565b60006020820190508181036000830152612839816127fd565b9050919050565b7f53616c652068617320616c726561647920656e64656400000000000000000000600082015250565b6000612876601683611f4f565b915061288182612840565b602082019050919050565b600060208201905081810360008301526128a581612869565b9050919050565b7f45746865722076616c75652073656e74206973206e6f7420636f727265637400600082015250565b60006128e2601f83611f4f565b91506128ed826128ac565b602082019050919050565b60006020820190508181036000830152612911816128d5565b9050919050565b7f4f776e61626c653a206e6577206f776e657220697320746865207a65726f206160008201527f6464726573730000000000000000000000000000000000000000000000000000602082015250565b6000612974602683611f4f565b915061297f82612918565b604082019050919050565b600060208201905081810360008301526129a381612967565b9050919050565b7f4552433732313a207472616e736665722066726f6d20696e636f72726563742060008201527f6f776e6572000000000000000000000000000000000000000000000000000000602082015250565b6000612a06602583611f4f565b9150612a11826129aa565b604082019050919050565b60006020820190508181036000830152612a35816129f9565b9050919050565b7f4552433732313a207472616e7366657220746f20746865207a65726f2061646460008201527f7265737300000000000000000000000000000000000000000000000000000000602082015250565b6000612a98602483611f4f565b9150612aa382612a3c565b604082019050919050565b60006020820190508181036000830152612ac781612a8b565b9050919050565b7f4f776e61626c653a2063616c6c6572206973206e6f7420746865206f776e6572600082015250565b6000612b04602083611f4f565b9150612b0f82612ace565b602082019050919050565b60006020820190508181036000830152612b3381612af7565b9050919050565b7f4552433732313a20617070726f766520746f2063616c6c657200000000000000600082015250565b6000612b70601983611f4f565b9150612b7b82612b3a565b602082019050919050565b60006020820190508181036000830152612b9f81612b63565b9050919050565b7f4552433732313a207472616e7366657220746f206e6f6e20455243373231526560008201527f63656976657220696d706c656d656e7465720000000000000000000000000000602082015250565b6000612c02603283611f4f565b9150612c0d82612ba6565b604082019050919050565b60006020820190508181036000830152612c3181612bf5565b9050919050565b600081905092915050565b6000612c4e82611f44565b612c588185612c38565b9350612c68818560208601611f60565b80840191505092915050565b6000612c808285612c43565b9150612c8c8284612c43565b91508190509392505050565b7f45524337323155524953746f726167653a2055524920736574206f66206e6f6e60008201527f6578697374656e7420746f6b656e000000000000000000000000000000000000602082015250565b6000612cf4602e83611f4f565b9150612cff82612c98565b604082019050919050565b60006020820190508181036000830152612d2381612ce7565b9050919050565b60008190508160005260206000209050919050565b60006020601f8301049050919050565b600082821b905092915050565b600060088302612d8c7fffffffffffffffffffffffffffffffffffffffffffffffffffffffffffffffff82612d4f565b612d968683612d4f565b95508019841693508086168417925050509392505050565b6000819050919050565b6000612dd3612dce612dc984611ff6565b612dae565b611ff6565b9050919050565b6000819050919050565b612ded83612db8565b612e01612df982612dda565b848454612d5c565b825550505050565b600090565b612e16612e09565b612e21818484612de4565b505050565b5b81811015612e4557612e3a600082612e0e565b600181019050612e27565b5050565b601f821115612e8a57612e5b81612d2a565b612e6484612d3f565b81016020851015612e73578190505b612e87612e7f85612d3f565b830182612e26565b50505b505050565b600082821c905092915050565b6000612ead60001984600802612e8f565b1980831691505092915050565b6000612ec68383612e9c565b9150826002028217905092915050565b612edf82611f44565b67ffffffffffffffff811115612ef857612ef7612241565b5b612f02825461255b565b612f0d828285612e49565b600060209050601f831160018114612f405760008415612f2e578287015190505b612f388582612eba565b865550612fa0565b601f198416612f4e86612d2a565b60005b82811015612f7657848901518255600182019150602085019450602081019050612f51565b86831015612f935784890151612f8f601f891682612e9c565b8355505b6001600288020188555050505b505050505050565b600081519050919050565b600082825260208201905092915050565b6000612fcf82612fa8565b612fd98185612fb3565b9350612fe9818560208601611f60565b612ff281611f8a565b840191505092915050565b6000608082019050613012600083018761208b565b61301f602083018661208b565b61302c6040830185612121565b818103606083015261303e8184612fc4565b905095945050505050565b60008151905061305881611eb5565b92915050565b60006020828403121561307457613073611e7f565b5b600061308284828501613049565b91505092915050565b7f4e487b7100000000000000000000000000000000000000000000000000000000600052601260045260246000fd5b7f4552433732313a206d696e7420746f20746865207a65726f2061646472657373600082015250565b60006130f0602083611f4f565b91506130fb826130ba565b602082019050919050565b6000602082019050818103600083015261311f816130e3565b9050919050565b7f4552433732313a20746f6b656e20616c7265616479206d696e74656400000000600082015250565b600061315c601c83611f4f565b915061316782613126565b602082019050919050565b6000602082019050818103600083015261318b8161314f565b905091905056fea2646970667358221220f7175eba6ceb11381b4ff21f3eb4db156fb48709394271884e08fc9853f71a3d64736f6c63430008120033",
  "linkReferences": {},
  "deployedLinkReferences": {}
}