{
  "_format": "hh-sol-artifact-1",
  "contractName": "GameOnNFT",
  "sourceName": "contracts/GameOnNFT.sol",
  "abi": [
    {
      "inputs": [],
      "stateMutability": "nonpayable",
      "type": "constructor"
    },
    {
      "anonymous": false,
      "inputs": [
        {
          "indexed": true,
          "internalType": "address",
          "name": "owner",
          "type": "address"
        },
        {
          "indexed": true,
          "internalType": "address",
          "name": "approved",
          "type": "address"
        },
        {
          "indexed": true,
          "internalType": "uint256",
          "name": "tokenId",
          "type": "uint256"
        }
      ],
      "name": "Approval",
      "type": "event"
    },
    {
      "anonymous": false,
      "inputs": [
        {
          "indexed": true,
          "internalType": "address",
          "name": "owner",
          "type": "address"
        },
        {
          "indexed": true,
          "internalType": "address",
          "name": "operator",
          "type": "address"
        },
        {
          "indexed": false,
          "internalType": "bool",
          "name": "approved",
          "type": "bool"
        }
      ],
      "name": "ApprovalForAll",
      "type": "event"
    },
    {
      "anonymous": false,
      "inputs": [
        {
          "indexed": true,
          "internalType": "address",
          "name": "previousOwner",
          "type": "address"
        },
        {
          "indexed": true,
          "internalType": "address",
          "name": "newOwner",
          "type": "address"
        }
      ],
      "name": "OwnershipTransferred",
      "type": "event"
    },
    {
      "anonymous": false,
      "inputs": [
        {
          "indexed": true,
          "internalType": "address",
          "name": "from",
          "type": "address"
        },
        {
          "indexed": true,
          "internalType": "address",
          "name": "to",
          "type": "address"
        },
        {
          "indexed": true,
          "internalType": "uint256",
          "name": "tokenId",
          "type": "uint256"
        }
      ],
      "name": "Transfer",
      "type": "event"
    },
    {
      "inputs": [],
      "name": "MAX_MINT",
      "outputs": [
        {
          "internalType": "uint256",
          "name": "",
          "type": "uint256"
        }
      ],
      "stateMutability": "view",
      "type": "function"
    },
    {
      "inputs": [],
      "name": "MAX_TOKENS",
      "outputs": [
        {
          "internalType": "uint256",
          "name": "",
          "type": "uint256"
        }
      ],
      "stateMutability": "view",
      "type": "function"
    },
    {
      "inputs": [],
      "name": "PRICE",
      "outputs": [
        {
          "internalType": "uint256",
          "name": "",
          "type": "uint256"
        }
      ],
      "stateMutability": "view",
      "type": "function"
    },
    {
      "inputs": [
        {
          "internalType": "address",
          "name": "to",
          "type": "address"
        },
        {
          "internalType": "uint256",
          "name": "tokenId",
          "type": "uint256"
        }
      ],
      "name": "approve",
      "outputs": [],
      "stateMutability": "nonpayable",
      "type": "function"
    },
    {
      "inputs": [
        {
          "internalType": "address",
          "name": "owner",
          "type": "address"
        }
      ],
      "name": "balanceOf",
      "outputs": [
        {
          "internalType": "uint256",
          "name": "",
          "type": "uint256"
        }
      ],
      "stateMutability": "view",
      "type": "function"
    },
    {
      "inputs": [
        {
          "internalType": "uint256",
          "name": "tokenId",
          "type": "uint256"
        }
      ],
      "name": "getApproved",
      "outputs": [
        {
          "internalType": "address",
          "name": "",
          "type": "address"
        }
      ],
      "stateMutability": "view",
      "type": "function"
    },
    {
      "inputs": [
        {
          "internalType": "address",
          "name": "owner",
          "type": "address"
        },
        {
          "internalType": "address",
          "name": "operator",
          "type": "address"
        }
      ],
      "name": "isApprovedForAll",
      "outputs": [
        {
          "internalType": "bool",
          "name": "",
          "type": "bool"
        }
      ],
      "stateMutability": "view",
      "type": "function"
    },
    {
      "inputs": [],
      "name": "name",
      "outputs": [
        {
          "internalType": "string",
          "name": "",
          "type": "string"
        }
      ],
      "stateMutability": "view",
      "type": "function"
    },
    {
      "inputs": [],
      "name": "owner",
      "outputs": [
        {
          "internalType": "address",
          "name": "",
          "type": "address"
        }
      ],
      "stateMutability": "view",
      "type": "function"
    },
    {
      "inputs": [
        {
          "internalType": "uint256",
          "name": "tokenId",
          "type": "uint256"
        }
      ],
      "name": "ownerOf",
      "outputs": [
        {
          "internalType": "address",
          "name": "",
          "type": "address"
        }
      ],
      "stateMutability": "view",
      "type": "function"
    },
    {
      "inputs": [],
      "name": "renounceOwnership",
      "outputs": [],
      "stateMutability": "nonpayable",
      "type": "function"
    },
    {
      "inputs": [
        {
          "internalType": "address",
          "name": "to",
          "type": "address"
        },
        {
          "internalType": "string",
          "name": "uri",
          "type": "string"
        }
      ],
      "name": "safeMint",
      "outputs": [],
      "stateMutability": "payable",
      "type": "function"
    },
    {
      "inputs": [
        {
          "internalType": "address",
          "name": "from",
          "type": "address"
        },
        {
          "internalType": "address",
          "name": "to",
          "type": "address"
        },
        {
          "internalType": "uint256",
          "name": "tokenId",
          "type": "uint256"
        }
      ],
      "name": "safeTransferFrom",
      "outputs": [],
      "stateMutability": "nonpayable",
      "type": "function"
    },
    {
      "inputs": [
        {
          "internalType": "address",
          "name": "from",
          "type": "address"
        },
        {
          "internalType": "address",
          "name": "to",
          "type": "address"
        },
        {
          "internalType": "uint256",
          "name": "tokenId",
          "type": "uint256"
        },
        {
          "internalType": "bytes",
          "name": "data",
          "type": "bytes"
        }
      ],
      "name": "safeTransferFrom",
      "outputs": [],
      "stateMutability": "nonpayable",
      "type": "function"
    },
    {
      "inputs": [
        {
          "internalType": "address",
          "name": "operator",
          "type": "address"
        },
        {
          "internalType": "bool",
          "name": "approved",
          "type": "bool"
        }
      ],
      "name": "setApprovalForAll",
      "outputs": [],
      "stateMutability": "nonpayable",
      "type": "function"
    },
    {
      "inputs": [
        {
          "internalType": "bytes4",
          "name": "interfaceId",
          "type": "bytes4"
        }
      ],
      "name": "supportsInterface",
      "outputs": [
        {
          "internalType": "bool",
          "name": "",
          "type": "bool"
        }
      ],
      "stateMutability": "view",
      "type": "function"
    },
    {
      "inputs": [],
      "name": "symbol",
      "outputs": [
        {
          "internalType": "string",
          "name": "",
          "type": "string"
        }
      ],
      "stateMutability": "view",
      "type": "function"
    },
    {
      "inputs": [
        {
          "internalType": "uint256",
          "name": "tokenId",
          "type": "uint256"
        }
      ],
      "name": "tokenURI",
      "outputs": [
        {
          "internalType": "string",
          "name": "",
          "type": "string"
        }
      ],
      "stateMutability": "view",
      "type": "function"
    },
    {
      "inputs": [],
      "name": "totalSupply",
      "outputs": [
        {
          "internalType": "uint256",
          "name": "",
          "type": "uint256"
        }
      ],
      "stateMutability": "view",
      "type": "function"
    },
    {
      "inputs": [
        {
          "internalType": "address",
          "name": "from",
          "type": "address"
        },
        {
          "internalType": "address",
          "name": "to",
          "type": "address"
        },
        {
          "internalType": "uint256",
          "name": "tokenId",
          "type": "uint256"
        }
      ],
      "name": "transferFrom",
      "outputs": [],
      "stateMutability": "nonpayable",
      "type": "function"
    },
    {
      "inputs": [
        {
          "internalType": "address",
          "name": "newOwner",
          "type": "address"
        }
      ],
      "name": "transferOwnership",
      "outputs": [],
      "stateMutability": "nonpayable",
      "type": "function"
    }
  ],
  "bytecode": "0x60806040523480156200001157600080fd5b506040518060400160405280600681526020017f47616d654f6e00000000000000000000000000000000000000000000000000008152506040518060400160405280600381526020017f474f4e000000000000000000000000000000000000000000000000000000000081525081600090816200008f919062000412565b508060019081620000a1919062000412565b505050620000c4620000b8620000ca60201b60201c565b620000d260201b60201c565b620004f9565b600033905090565b6000600760009054906101000a900473ffffffffffffffffffffffffffffffffffffffff16905081600760006101000a81548173ffffffffffffffffffffffffffffffffffffffff021916908373ffffffffffffffffffffffffffffffffffffffff1602179055508173ffffffffffffffffffffffffffffffffffffffff168173ffffffffffffffffffffffffffffffffffffffff167f8be0079c531659141344cd1fd0a4f28419497f9722a3daafe3b4186f6b6457e060405160405180910390a35050565b600081519050919050565b7f4e487b7100000000000000000000000000000000000000000000000000000000600052604160045260246000fd5b7f4e487b7100000000000000000000000000000000000000000000000000000000600052602260045260246000fd5b600060028204905060018216806200021a57607f821691505b60208210810362000230576200022f620001d2565b5b50919050565b60008190508160005260206000209050919050565b60006020601f8301049050919050565b600082821b905092915050565b6000600883026200029a7fffffffffffffffffffffffffffffffffffffffffffffffffffffffffffffffff826200025b565b620002a686836200025b565b95508019841693508086168417925050509392505050565b6000819050919050565b6000819050919050565b6000620002f3620002ed620002e784620002be565b620002c8565b620002be565b9050919050565b6000819050919050565b6200030f83620002d2565b620003276200031e82620002fa565b84845462000268565b825550505050565b600090565b6200033e6200032f565b6200034b81848462000304565b505050565b5b8181101562000373576200036760008262000334565b60018101905062000351565b5050565b601f821115620003c2576200038c8162000236565b62000397846200024b565b81016020851015620003a7578190505b620003bf620003b6856200024b565b83018262000350565b50505b505050565b600082821c905092915050565b6000620003e760001984600802620003c7565b1980831691505092915050565b6000620004028383620003d4565b9150826002028217905092915050565b6200041d8262000198565b67ffffffffffffffff811115620004395762000438620001a3565b5b62000445825462000201565b6200045282828562000377565b600060209050601f8311600181146200048a576000841562000475578287015190505b620004818582620003f4565b865550620004f1565b601f1984166200049a8662000236565b60005b82811015620004c4578489015182556001820191506020850194506020810190506200049d565b86831015620004e45784890151620004e0601f891682620003d4565b8355505b6001600288020188555050505b505050505050565b61309980620005096000396000f3fe60806040526004361061012a5760003560e01c80638d859f3e116100ab578063c87b56dd1161006f578063c87b56dd146103de578063d204c45e1461041b578063e985e9c514610437578063f0292a0314610474578063f2fde38b1461049f578063f47c84c5146104c85761012a565b80638d859f3e1461030b5780638da5cb5b1461033657806395d89b4114610361578063a22cb4651461038c578063b88d4fde146103b55761012a565b806323b872dd116100f257806323b872dd1461022857806342842e0e146102515780636352211e1461027a57806370a08231146102b7578063715018a6146102f45761012a565b806301ffc9a71461012f57806306fdde031461016c578063081812fc14610197578063095ea7b3146101d457806318160ddd146101fd575b600080fd5b34801561013b57600080fd5b5061015660048036038101906101519190611e1e565b6104f3565b6040516101639190611e66565b60405180910390f35b34801561017857600080fd5b506101816105d5565b60405161018e9190611f11565b60405180910390f35b3480156101a357600080fd5b506101be60048036038101906101b99190611f69565b610667565b6040516101cb9190611fd7565b60405180910390f35b3480156101e057600080fd5b506101fb60048036038101906101f6919061201e565b6106ad565b005b34801561020957600080fd5b506102126107c4565b60405161021f919061206d565b60405180910390f35b34801561023457600080fd5b5061024f600480360381019061024a9190612088565b6107d5565b005b34801561025d57600080fd5b5061027860048036038101906102739190612088565b610835565b005b34801561028657600080fd5b506102a1600480360381019061029c9190611f69565b610855565b6040516102ae9190611fd7565b60405180910390f35b3480156102c357600080fd5b506102de60048036038101906102d991906120db565b6108db565b6040516102eb919061206d565b60405180910390f35b34801561030057600080fd5b50610309610992565b005b34801561031757600080fd5b506103206109a6565b60405161032d919061206d565b60405180910390f35b34801561034257600080fd5b5061034b6109b1565b6040516103589190611fd7565b60405180910390f35b34801561036d57600080fd5b506103766109db565b6040516103839190611f11565b60405180910390f35b34801561039857600080fd5b506103b360048036038101906103ae9190612134565b610a6d565b005b3480156103c157600080fd5b506103dc60048036038101906103d791906122a9565b610a83565b005b3480156103ea57600080fd5b5061040560048036038101906104009190611f69565b610ae5565b6040516104129190611f11565b60405180910390f35b610435600480360381019061043091906123cd565b610af7565b005b34801561044357600080fd5b5061045e60048036038101906104599190612429565b610b73565b60405161046b9190611e66565b60405180910390f35b34801561048057600080fd5b50610489610c07565b604051610496919061206d565b60405180910390f35b3480156104ab57600080fd5b506104c660048036038101906104c191906120db565b610c0c565b005b3480156104d457600080fd5b506104dd610c8f565b6040516104ea919061206d565b60405180910390f35b60007f80ac58cd000000000000000000000000000000000000000000000000000000007bffffffffffffffffffffffffffffffffffffffffffffffffffffffff1916827bffffffffffffffffffffffffffffffffffffffffffffffffffffffff191614806105be57507f5b5e139f000000000000000000000000000000000000000000000000000000007bffffffffffffffffffffffffffffffffffffffffffffffffffffffff1916827bffffffffffffffffffffffffffffffffffffffffffffffffffffffff1916145b806105ce57506105cd82610c95565b5b9050919050565b6060600080546105e490612498565b80601f016020809104026020016040519081016040528092919081815260200182805461061090612498565b801561065d5780601f106106325761010080835404028352916020019161065d565b820191906000526020600020905b81548152906001019060200180831161064057829003601f168201915b5050505050905090565b600061067282610cff565b6004600083815260200190815260200160002060009054906101000a900473ffffffffffffffffffffffffffffffffffffffff169050919050565b60006106b882610855565b90508073ffffffffffffffffffffffffffffffffffffffff168373ffffffffffffffffffffffffffffffffffffffff1603610728576040517f08c379a000000000000000000000000000000000000000000000000000000000815260040161071f9061253b565b60405180910390fd5b8073ffffffffffffffffffffffffffffffffffffffff16610747610d4a565b73ffffffffffffffffffffffffffffffffffffffff161480610776575061077581610770610d4a565b610b73565b5b6107b5576040517f08c379a00000000000000000000000000000000000000000000000000000000081526004016107ac906125cd565b60405180910390fd5b6107bf8383610d52565b505050565b60006107d06008610e0b565b905090565b6107e66107e0610d4a565b82610e19565b610825576040517f08c379a000000000000000000000000000000000000000000000000000000000815260040161081c9061265f565b60405180910390fd5b610830838383610eae565b505050565b61085083838360405180602001604052806000815250610a83565b505050565b600080610861836111a7565b9050600073ffffffffffffffffffffffffffffffffffffffff168173ffffffffffffffffffffffffffffffffffffffff16036108d2576040517f08c379a00000000000000000000000000000000000000000000000000000000081526004016108c9906126cb565b60405180910390fd5b80915050919050565b60008073ffffffffffffffffffffffffffffffffffffffff168273ffffffffffffffffffffffffffffffffffffffff160361094b576040517f08c379a00000000000000000000000000000000000000000000000000000000081526004016109429061275d565b60405180910390fd5b600360008373ffffffffffffffffffffffffffffffffffffffff1673ffffffffffffffffffffffffffffffffffffffff168152602001908152602001600020549050919050565b61099a6111e4565b6109a46000611262565b565b66b1a2bc2ec5000081565b6000600760009054906101000a900473ffffffffffffffffffffffffffffffffffffffff16905090565b6060600180546109ea90612498565b80601f0160208091040260200160405190810160405280929190818152602001828054610a1690612498565b8015610a635780601f10610a3857610100808354040283529160200191610a63565b820191906000526020600020905b815481529060010190602001808311610a4657829003601f168201915b5050505050905090565b610a7f610a78610d4a565b8383611328565b5050565b610a94610a8e610d4a565b83610e19565b610ad3576040517f08c379a0000000000000000000000000000000000000000000000000000000008152600401610aca9061265f565b60405180910390fd5b610adf84848484611494565b50505050565b6060610af0826114f0565b9050919050565b612710610b026107c4565b10610b42576040517f08c379a0000000000000000000000000000000000000000000000000000000008152600401610b39906127c9565b60405180910390fd5b6000610b4e6008610e0b565b9050610b5a6008611602565b610b648382611618565b610b6e8183611636565b505050565b6000600560008473ffffffffffffffffffffffffffffffffffffffff1673ffffffffffffffffffffffffffffffffffffffff16815260200190815260200160002060008373ffffffffffffffffffffffffffffffffffffffff1673ffffffffffffffffffffffffffffffffffffffff16815260200190815260200160002060009054906101000a900460ff16905092915050565b601481565b610c146111e4565b600073ffffffffffffffffffffffffffffffffffffffff168173ffffffffffffffffffffffffffffffffffffffff1603610c83576040517f08c379a0000000000000000000000000000000000000000000000000000000008152600401610c7a9061285b565b60405180910390fd5b610c8c81611262565b50565b61271081565b60007f01ffc9a7000000000000000000000000000000000000000000000000000000007bffffffffffffffffffffffffffffffffffffffffffffffffffffffff1916827bffffffffffffffffffffffffffffffffffffffffffffffffffffffff1916149050919050565b610d08816116a3565b610d47576040517f08c379a0000000000000000000000000000000000000000000000000000000008152600401610d3e906126cb565b60405180910390fd5b50565b600033905090565b816004600083815260200190815260200160002060006101000a81548173ffffffffffffffffffffffffffffffffffffffff021916908373ffffffffffffffffffffffffffffffffffffffff160217905550808273ffffffffffffffffffffffffffffffffffffffff16610dc583610855565b73ffffffffffffffffffffffffffffffffffffffff167f8c5be1e5ebec7d5bd14f71427d1e84f3dd0314c0f7b2291e5b200ac8c7c3b92560405160405180910390a45050565b600081600001549050919050565b600080610e2583610855565b90508073ffffffffffffffffffffffffffffffffffffffff168473ffffffffffffffffffffffffffffffffffffffff161480610e675750610e668185610b73565b5b80610ea557508373ffffffffffffffffffffffffffffffffffffffff16610e8d84610667565b73ffffffffffffffffffffffffffffffffffffffff16145b91505092915050565b8273ffffffffffffffffffffffffffffffffffffffff16610ece82610855565b73ffffffffffffffffffffffffffffffffffffffff1614610f24576040517f08c379a0000000000000000000000000000000000000000000000000000000008152600401610f1b906128ed565b60405180910390fd5b600073ffffffffffffffffffffffffffffffffffffffff168273ffffffffffffffffffffffffffffffffffffffff1603610f93576040517f08c379a0000000000000000000000000000000000000000000000000000000008152600401610f8a9061297f565b60405180910390fd5b610fa083838360016116e4565b8273ffffffffffffffffffffffffffffffffffffffff16610fc082610855565b73ffffffffffffffffffffffffffffffffffffffff1614611016576040517f08c379a000000000000000000000000000000000000000000000000000000000815260040161100d906128ed565b60405180910390fd5b6004600082815260200190815260200160002060006101000a81549073ffffffffffffffffffffffffffffffffffffffff02191690556001600360008573ffffffffffffffffffffffffffffffffffffffff1673ffffffffffffffffffffffffffffffffffffffff168152602001908152602001600020600082825403925050819055506001600360008473ffffffffffffffffffffffffffffffffffffffff1673ffffffffffffffffffffffffffffffffffffffff16815260200190815260200160002060008282540192505081905550816002600083815260200190815260200160002060006101000a81548173ffffffffffffffffffffffffffffffffffffffff021916908373ffffffffffffffffffffffffffffffffffffffff160217905550808273ffffffffffffffffffffffffffffffffffffffff168473ffffffffffffffffffffffffffffffffffffffff167fddf252ad1be2c89b69c2b068fc378daa952ba7f163c4a11628f55a4df523b3ef60405160405180910390a46111a283838360016116ea565b505050565b60006002600083815260200190815260200160002060009054906101000a900473ffffffffffffffffffffffffffffffffffffffff169050919050565b6111ec610d4a565b73ffffffffffffffffffffffffffffffffffffffff1661120a6109b1565b73ffffffffffffffffffffffffffffffffffffffff1614611260576040517f08c379a0000000000000000000000000000000000000000000000000000000008152600401611257906129eb565b60405180910390fd5b565b6000600760009054906101000a900473ffffffffffffffffffffffffffffffffffffffff16905081600760006101000a81548173ffffffffffffffffffffffffffffffffffffffff021916908373ffffffffffffffffffffffffffffffffffffffff1602179055508173ffffffffffffffffffffffffffffffffffffffff168173ffffffffffffffffffffffffffffffffffffffff167f8be0079c531659141344cd1fd0a4f28419497f9722a3daafe3b4186f6b6457e060405160405180910390a35050565b8173ffffffffffffffffffffffffffffffffffffffff168373ffffffffffffffffffffffffffffffffffffffff1603611396576040517f08c379a000000000000000000000000000000000000000000000000000000000815260040161138d90612a57565b60405180910390fd5b80600560008573ffffffffffffffffffffffffffffffffffffffff1673ffffffffffffffffffffffffffffffffffffffff16815260200190815260200160002060008473ffffffffffffffffffffffffffffffffffffffff1673ffffffffffffffffffffffffffffffffffffffff16815260200190815260200160002060006101000a81548160ff0219169083151502179055508173ffffffffffffffffffffffffffffffffffffffff168373ffffffffffffffffffffffffffffffffffffffff167f17307eab39ab6107e8899845ad3d59bd9653f200f220920489ca2b5937696c31836040516114879190611e66565b60405180910390a3505050565b61149f848484610eae565b6114ab848484846116f0565b6114ea576040517f08c379a00000000000000000000000000000000000000000000000000000000081526004016114e190612ae9565b60405180910390fd5b50505050565b60606114fb82610cff565b600060066000848152602001908152602001600020805461151b90612498565b80601f016020809104026020016040519081016040528092919081815260200182805461154790612498565b80156115945780601f1061156957610100808354040283529160200191611594565b820191906000526020600020905b81548152906001019060200180831161157757829003601f168201915b5050505050905060006115a5611877565b905060008151036115ba5781925050506115fd565b6000825111156115ef5780826040516020016115d7929190612b45565b604051602081830303815290604052925050506115fd565b6115f88461188e565b925050505b919050565b6001816000016000828254019250508190555050565b6116328282604051806020016040528060008152506118f6565b5050565b61163f826116a3565b61167e576040517f08c379a000000000000000000000000000000000000000000000000000000000815260040161167590612bdb565b60405180910390fd5b8060066000848152602001908152602001600020908161169e9190612da7565b505050565b60008073ffffffffffffffffffffffffffffffffffffffff166116c5836111a7565b73ffffffffffffffffffffffffffffffffffffffff1614159050919050565b50505050565b50505050565b60006117118473ffffffffffffffffffffffffffffffffffffffff16611951565b1561186a578373ffffffffffffffffffffffffffffffffffffffff1663150b7a0261173a610d4a565b8786866040518563ffffffff1660e01b815260040161175c9493929190612ece565b6020604051808303816000875af192505050801561179857506040513d601f19601f820116820180604052508101906117959190612f2f565b60015b61181a573d80600081146117c8576040519150601f19603f3d011682016040523d82523d6000602084013e6117cd565b606091505b506000815103611812576040517f08c379a000000000000000000000000000000000000000000000000000000000815260040161180990612ae9565b60405180910390fd5b805181602001fd5b63150b7a0260e01b7bffffffffffffffffffffffffffffffffffffffffffffffffffffffff1916817bffffffffffffffffffffffffffffffffffffffffffffffffffffffff19161491505061186f565b600190505b949350505050565b606060405180602001604052806000815250905090565b606061189982610cff565b60006118a3611877565b905060008151116118c357604051806020016040528060008152506118ee565b806118cd84611974565b6040516020016118de929190612b45565b6040516020818303038152906040525b915050919050565b6119008383611a42565b61190d60008484846116f0565b61194c576040517f08c379a000000000000000000000000000000000000000000000000000000000815260040161194390612ae9565b60405180910390fd5b505050565b6000808273ffffffffffffffffffffffffffffffffffffffff163b119050919050565b60606000600161198384611c5f565b01905060008167ffffffffffffffff8111156119a2576119a161217e565b5b6040519080825280601f01601f1916602001820160405280156119d45781602001600182028036833780820191505090505b509050600082602001820190505b600115611a37578080600190039150507f3031323334353637383961626364656600000000000000000000000000000000600a86061a8153600a8581611a2b57611a2a612f5c565b5b049450600085036119e2575b819350505050919050565b600073ffffffffffffffffffffffffffffffffffffffff168273ffffffffffffffffffffffffffffffffffffffff1603611ab1576040517f08c379a0000000000000000000000000000000000000000000000000000000008152600401611aa890612fd7565b60405180910390fd5b611aba816116a3565b15611afa576040517f08c379a0000000000000000000000000000000000000000000000000000000008152600401611af190613043565b60405180910390fd5b611b086000838360016116e4565b611b11816116a3565b15611b51576040517f08c379a0000000000000000000000000000000000000000000000000000000008152600401611b4890613043565b60405180910390fd5b6001600360008473ffffffffffffffffffffffffffffffffffffffff1673ffffffffffffffffffffffffffffffffffffffff16815260200190815260200160002060008282540192505081905550816002600083815260200190815260200160002060006101000a81548173ffffffffffffffffffffffffffffffffffffffff021916908373ffffffffffffffffffffffffffffffffffffffff160217905550808273ffffffffffffffffffffffffffffffffffffffff16600073ffffffffffffffffffffffffffffffffffffffff167fddf252ad1be2c89b69c2b068fc378daa952ba7f163c4a11628f55a4df523b3ef60405160405180910390a4611c5b6000838360016116ea565b5050565b600080600090507a184f03e93ff9f4daa797ed6e38ed64bf6a1f0100000000000000008310611cbd577a184f03e93ff9f4daa797ed6e38ed64bf6a1f0100000000000000008381611cb357611cb2612f5c565b5b0492506040810190505b6d04ee2d6d415b85acef81000000008310611cfa576d04ee2d6d415b85acef81000000008381611cf057611cef612f5c565b5b0492506020810190505b662386f26fc100008310611d2957662386f26fc100008381611d1f57611d1e612f5c565b5b0492506010810190505b6305f5e1008310611d52576305f5e1008381611d4857611d47612f5c565b5b0492506008810190505b6127108310611d77576127108381611d6d57611d6c612f5c565b5b0492506004810190505b60648310611d9a5760648381611d9057611d8f612f5c565b5b0492506002810190505b600a8310611da9576001810190505b80915050919050565b6000604051905090565b600080fd5b600080fd5b60007fffffffff0000000000000000000000000000000000000000000000000000000082169050919050565b611dfb81611dc6565b8114611e0657600080fd5b50565b600081359050611e1881611df2565b92915050565b600060208284031215611e3457611e33611dbc565b5b6000611e4284828501611e09565b91505092915050565b60008115159050919050565b611e6081611e4b565b82525050565b6000602082019050611e7b6000830184611e57565b92915050565b600081519050919050565b600082825260208201905092915050565b60005b83811015611ebb578082015181840152602081019050611ea0565b60008484015250505050565b6000601f19601f8301169050919050565b6000611ee382611e81565b611eed8185611e8c565b9350611efd818560208601611e9d565b611f0681611ec7565b840191505092915050565b60006020820190508181036000830152611f2b8184611ed8565b905092915050565b6000819050919050565b611f4681611f33565b8114611f5157600080fd5b50565b600081359050611f6381611f3d565b92915050565b600060208284031215611f7f57611f7e611dbc565b5b6000611f8d84828501611f54565b91505092915050565b600073ffffffffffffffffffffffffffffffffffffffff82169050919050565b6000611fc182611f96565b9050919050565b611fd181611fb6565b82525050565b6000602082019050611fec6000830184611fc8565b92915050565b611ffb81611fb6565b811461200657600080fd5b50565b60008135905061201881611ff2565b92915050565b6000806040838503121561203557612034611dbc565b5b600061204385828601612009565b925050602061205485828601611f54565b9150509250929050565b61206781611f33565b82525050565b6000602082019050612082600083018461205e565b92915050565b6000806000606084860312156120a1576120a0611dbc565b5b60006120af86828701612009565b93505060206120c086828701612009565b92505060406120d186828701611f54565b9150509250925092565b6000602082840312156120f1576120f0611dbc565b5b60006120ff84828501612009565b91505092915050565b61211181611e4b565b811461211c57600080fd5b50565b60008135905061212e81612108565b92915050565b6000806040838503121561214b5761214a611dbc565b5b600061215985828601612009565b925050602061216a8582860161211f565b9150509250929050565b600080fd5b600080fd5b7f4e487b7100000000000000000000000000000000000000000000000000000000600052604160045260246000fd5b6121b682611ec7565b810181811067ffffffffffffffff821117156121d5576121d461217e565b5b80604052505050565b60006121e8611db2565b90506121f482826121ad565b919050565b600067ffffffffffffffff8211156122145761221361217e565b5b61221d82611ec7565b9050602081019050919050565b82818337600083830152505050565b600061224c612247846121f9565b6121de565b90508281526020810184848401111561226857612267612179565b5b61227384828561222a565b509392505050565b600082601f8301126122905761228f612174565b5b81356122a0848260208601612239565b91505092915050565b600080600080608085870312156122c3576122c2611dbc565b5b60006122d187828801612009565b94505060206122e287828801612009565b93505060406122f387828801611f54565b925050606085013567ffffffffffffffff81111561231457612313611dc1565b5b6123208782880161227b565b91505092959194509250565b600067ffffffffffffffff8211156123475761234661217e565b5b61235082611ec7565b9050602081019050919050565b600061237061236b8461232c565b6121de565b90508281526020810184848401111561238c5761238b612179565b5b61239784828561222a565b509392505050565b600082601f8301126123b4576123b3612174565b5b81356123c484826020860161235d565b91505092915050565b600080604083850312156123e4576123e3611dbc565b5b60006123f285828601612009565b925050602083013567ffffffffffffffff81111561241357612412611dc1565b5b61241f8582860161239f565b9150509250929050565b600080604083850312156124405761243f611dbc565b5b600061244e85828601612009565b925050602061245f85828601612009565b9150509250929050565b7f4e487b7100000000000000000000000000000000000000000000000000000000600052602260045260246000fd5b600060028204905060018216806124b057607f821691505b6020821081036124c3576124c2612469565b5b50919050565b7f4552433732313a20617070726f76616c20746f2063757272656e74206f776e6560008201527f7200000000000000000000000000000000000000000000000000000000000000602082015250565b6000612525602183611e8c565b9150612530826124c9565b604082019050919050565b6000602082019050818103600083015261255481612518565b9050919050565b7f4552433732313a20617070726f76652063616c6c6572206973206e6f7420746f60008201527f6b656e206f776e6572206f7220617070726f76656420666f7220616c6c000000602082015250565b60006125b7603d83611e8c565b91506125c28261255b565b604082019050919050565b600060208201905081810360008301526125e6816125aa565b9050919050565b7f4552433732313a2063616c6c6572206973206e6f7420746f6b656e206f776e6560008201527f72206f7220617070726f76656400000000000000000000000000000000000000602082015250565b6000612649602d83611e8c565b9150612654826125ed565b604082019050919050565b600060208201905081810360008301526126788161263c565b9050919050565b7f4552433732313a20696e76616c696420746f6b656e2049440000000000000000600082015250565b60006126b5601883611e8c565b91506126c08261267f565b602082019050919050565b600060208201905081810360008301526126e4816126a8565b9050919050565b7f4552433732313a2061646472657373207a65726f206973206e6f74206120766160008201527f6c6964206f776e65720000000000000000000000000000000000000000000000602082015250565b6000612747602983611e8c565b9150612752826126eb565b604082019050919050565b600060208201905081810360008301526127768161273a565b9050919050565b7f53616c652068617320616c726561647920656e64656400000000000000000000600082015250565b60006127b3601683611e8c565b91506127be8261277d565b602082019050919050565b600060208201905081810360008301526127e2816127a6565b9050919050565b7f4f776e61626c653a206e6577206f776e657220697320746865207a65726f206160008201527f6464726573730000000000000000000000000000000000000000000000000000602082015250565b6000612845602683611e8c565b9150612850826127e9565b604082019050919050565b6000602082019050818103600083015261287481612838565b9050919050565b7f4552433732313a207472616e736665722066726f6d20696e636f72726563742060008201527f6f776e6572000000000000000000000000000000000000000000000000000000602082015250565b60006128d7602583611e8c565b91506128e28261287b565b604082019050919050565b60006020820190508181036000830152612906816128ca565b9050919050565b7f4552433732313a207472616e7366657220746f20746865207a65726f2061646460008201527f7265737300000000000000000000000000000000000000000000000000000000602082015250565b6000612969602483611e8c565b91506129748261290d565b604082019050919050565b600060208201905081810360008301526129988161295c565b9050919050565b7f4f776e61626c653a2063616c6c6572206973206e6f7420746865206f776e6572600082015250565b60006129d5602083611e8c565b91506129e08261299f565b602082019050919050565b60006020820190508181036000830152612a04816129c8565b9050919050565b7f4552433732313a20617070726f766520746f2063616c6c657200000000000000600082015250565b6000612a41601983611e8c565b9150612a4c82612a0b565b602082019050919050565b60006020820190508181036000830152612a7081612a34565b9050919050565b7f4552433732313a207472616e7366657220746f206e6f6e20455243373231526560008201527f63656976657220696d706c656d656e7465720000000000000000000000000000602082015250565b6000612ad3603283611e8c565b9150612ade82612a77565b604082019050919050565b60006020820190508181036000830152612b0281612ac6565b9050919050565b600081905092915050565b6000612b1f82611e81565b612b298185612b09565b9350612b39818560208601611e9d565b80840191505092915050565b6000612b518285612b14565b9150612b5d8284612b14565b91508190509392505050565b7f45524337323155524953746f726167653a2055524920736574206f66206e6f6e60008201527f6578697374656e7420746f6b656e000000000000000000000000000000000000602082015250565b6000612bc5602e83611e8c565b9150612bd082612b69565b604082019050919050565b60006020820190508181036000830152612bf481612bb8565b9050919050565b60008190508160005260206000209050919050565b60006020601f8301049050919050565b600082821b905092915050565b600060088302612c5d7fffffffffffffffffffffffffffffffffffffffffffffffffffffffffffffffff82612c20565b612c678683612c20565b95508019841693508086168417925050509392505050565b6000819050919050565b6000612ca4612c9f612c9a84611f33565b612c7f565b611f33565b9050919050565b6000819050919050565b612cbe83612c89565b612cd2612cca82612cab565b848454612c2d565b825550505050565b600090565b612ce7612cda565b612cf2818484612cb5565b505050565b5b81811015612d1657612d0b600082612cdf565b600181019050612cf8565b5050565b601f821115612d5b57612d2c81612bfb565b612d3584612c10565b81016020851015612d44578190505b612d58612d5085612c10565b830182612cf7565b50505b505050565b600082821c905092915050565b6000612d7e60001984600802612d60565b1980831691505092915050565b6000612d978383612d6d565b9150826002028217905092915050565b612db082611e81565b67ffffffffffffffff811115612dc957612dc861217e565b5b612dd38254612498565b612dde828285612d1a565b600060209050601f831160018114612e115760008415612dff578287015190505b612e098582612d8b565b865550612e71565b601f198416612e1f86612bfb565b60005b82811015612e4757848901518255600182019150602085019450602081019050612e22565b86831015612e645784890151612e60601f891682612d6d565b8355505b6001600288020188555050505b505050505050565b600081519050919050565b600082825260208201905092915050565b6000612ea082612e79565b612eaa8185612e84565b9350612eba818560208601611e9d565b612ec381611ec7565b840191505092915050565b6000608082019050612ee36000830187611fc8565b612ef06020830186611fc8565b612efd604083018561205e565b8181036060830152612f0f8184612e95565b905095945050505050565b600081519050612f2981611df2565b92915050565b600060208284031215612f4557612f44611dbc565b5b6000612f5384828501612f1a565b91505092915050565b7f4e487b7100000000000000000000000000000000000000000000000000000000600052601260045260246000fd5b7f4552433732313a206d696e7420746f20746865207a65726f2061646472657373600082015250565b6000612fc1602083611e8c565b9150612fcc82612f8b565b602082019050919050565b60006020820190508181036000830152612ff081612fb4565b9050919050565b7f4552433732313a20746f6b656e20616c7265616479206d696e74656400000000600082015250565b600061302d601c83611e8c565b915061303882612ff7565b602082019050919050565b6000602082019050818103600083015261305c81613020565b905091905056fea26469706673582212200e05d0e80a9848f1f551fd695bd21fd6a55a19b29b96673b361a1b14f8de95cb64736f6c63430008120033",
  "linkReferences": {},
  "deployedLinkReferences": {}
}